:100000000C940B060C94E44E0C94B94E0C948E4E4A
:100010000C94634E0C94384E0C940D4E0C94E24D9F
:100020000C94B74D0C948F500C943C060C94665075
:100030000C94384F0C940F4F0C943C060C943C06D7
:100040000C943C060C943C060C943C060C943C0628
:100050000C943C060C943C060C943C060C946D4DA0
:100060000C943C060C94434D0C94194D0C943C0696
:100070000C943C060C943C060C943C060C943C06F8
:100080000C943C060C943C060C943C060C943C06E8
:100090000C94EF4C0C94C54C0C943C060C94424FC1
:1000A0000C943C060C943C060C943C060C943C06C8
:1000B0000C943C060C943C060C943C060C943C06B8
:1000C0000C943C060C943C060C943C060C949B4C03
:1000D0000C94714C0C943C060C94474C0C941D4CA5
:1000E0000C943C060C9488100C9474150C94904756
:1000F0000C941A160C94C8500C94400E0C94BB0D22
:100100000C94CD2F0C94ED480C941F180C94F51CF6
:100110000C9424460C94EA100C9494080C949F4878
:100120000C9491100C94E5160C94553D0C949F1072
:100130000C94A3090C943E080C944C0E0C94A20948
:100140000C94D73C0C9462090C9465150C94A60E83
:100150000C94AA0E0C94490E0C94C30D0C94F74603
:100160000C94023D0C94A30E0C947A1D0C94980CE4
:100170000C94701D0C94731D0C946A1D0C949F16A6
:100180000C94DC3C0C941C080C948B160C94DA1622
:100190000C942C220C949F0E0C940A180C94DC46A0
:1001A0000C9495090C948F090C9447070C94E63C29
:1001B0000C949C0E0C94A7090C9422180C940E41DC
:1001C0000C9487090C94C30C0C94470E0C94452F87
:1001D0000C9474090C94DA1C0C942D0E0C948E075C
:1001E0000C945F3D0C9499090C9460070C94680979
:1001F0000C94D80E0C94661D0C94151C0C94380E9F
:100200000C940A0A0C9451210C9461070C94381830
:100210000C940A0E0C94F03C0C942D460C940A3D60
:100220000C94DB170C94B12C0C94B4100C948F101C
:100230000C9487150C946F210C94F1300C940E35AE
:100240000C94761D0C9482170C94FD2E0C94770957
:100250000C944C370C94F10D0C944B3D0C94283DB0
:100260000C94413D0C9473100C94CF0D0C94CF164C
:100270000C940D080C9481090C941F260C94E33502
:100280000C94480E0C9408140C94581F0C94020AF9
:100290000C94143D0C946D1D0C94CC310C944F0EA9
:1002A0000C94AD4A0C943B160C94DC0D0C947F1608
:1002B0000C94970C0C9430080C94FD0D0C94491878
:1002C0000C948C100C94440E0C94241E0C948F48A7
:1002D0000C9434340C9494160C9497100C94693D3F
:1002E0000C94373D0C94044A0C94B4150C94D632FB
:1002F0000C941B180C94EC1C0C94D9100C947009E1
:100300000C9475100C94E31C0C947D090C948B09CF
:100310000C941E3D0C94FE1C0C94D6100C943A0EBA
:100320000C94DD170C94C60C0C9484100C94A962E8
:100330000C9485160C94D5180C943E180C94420E0F
:100340000C94AB4A0C94A20E0C94D23C0C94460E26
:100350000C9425180C949D090C943C0E0C94701070
:100360000C9454180C9462070C94E1080C945F17D9
:100370000C94FA3C0C94E5380C94BD4A0C94E90DAD
:100380000C94D8170C946C090C94DB100C945C162C
:100390004E414E494E495459494E46CDCCCC3D0A6A
:1003A000D7233C17B7D13877CC2B329595E6241F4D
:1003B000B14F0A000020410000C84200401C462006
:1003C000BCBE4CCA1B0E5AAEC59D746364696E6F89
:1003D00070737578585B0052657175657374204948
:1003E000643A005D20004D6573736167652061723A
:1003F0007269766564205B00207365636F6E647359
:1004000000536C656570696E6720666F723A2000F4
:1004100053617665204F4B00436F6E6669672052CB
:10042000657365742100526573657474696E672025
:10043000636F6E6669672E2E005265626F6F746916
:100440006E672E2E003E3E204D5154545F434F4E5A
:100450004E41434B5F4552524F523A003E3E204D73
:100460005154545F434F4E4E454354494F4E5F5491
:10047000494D454F5554003E3E204D5154545F4424
:100480004953434F4E4E4543544544003E3E20435E
:100490004C49454E5420444953434F4E4E454354D6
:1004A000003E3E204D5154545F434F4E4E45435401
:1004B000494F4E5F4C4F535400005EBCE2613FDD3C
:1004C00083C29C7E20A3FD1F419DC3217FFCA240CF
:1004D0001E5F01E3BD3E6082DC237D9FC1421CFEA6
:1004E000A0E1BF5D0380DE3C62BEE0025CDF8163B1
:1004F0003D7C22C09E1D43A1FF4618FAA427799B8C
:10050000C584DA3866E5BB5907DB856739BAE40686
:10051000581947A5FB7826C49A653BD987045AB871
:10052000E6A7F91B45C6987A24F8A6441A99C72568
:100530007B3A6486D85B05E7B98CD2306EEDB35157
:100540000F4E10F2AC2F7193CD114FADF3702ECC36
:1005500092D38D6F31B2EC0E50AFF1134DCE90723D
:100560002C6D33D18F0C52B0EE326C8ED0530DEF18
:10057000B1F0AE4C1291CF2D73CA947628ABF5171B
:10058000490856B4EA6937D58B5709EBB536688AFE
:10059000D495CB2977F4AA4816E9B7550B88D634F9
:1005A0006A2B7597C94A14F6A8742AC896154BA9E0
:1005B000F7B6E80A54D7896B3541542B4346554E5C
:1005C0003D0044454255473A2047505253206174FC
:1005D0007461636820737563636573730041542BA2
:1005E00053415042523D312C310041542B53415024
:1005F00042523D332C312C22436F6E747970652248
:100600002C2247505253220044454255473A204E2F
:100610006574776F726B2072656769737465726554
:10062000640054696D652073796E63206661696C3E
:1006300065643A200041542B43434C4B3F004154E6
:100640002B434E54500041542B434E54503D227482
:10065000696D652E676F6F676C652E636F6D222CF9
:100660000041542B434E54504349443D31004154C2
:100670002B4353510D0A0041542B435245473F0031
:1006800041542B53415042523D322C310041542BA6
:100690004349505354415455530044454255473AF9
:1006A0002054435020696E6974206661696C6564EA
:1006B0000044454255473A2054435020616C7265CE
:1006C00061647920636F6E6E65637465643A2000BF
:1006D00044454255473A2054435020636F6E6E653F
:1006E0006374656420736F636B65743A20004154D2
:1006F0002B43495053544152543D22544350222CD1
:10070000220041542B434950484541443D3100416A
:10071000542B434950434C4F5345004445425547A1
:100720003A2057726974650044454255473A20544F
:1007300043505F494E49545F54494D454F5554000D
:1007400041542B43495053454E443D0041540041D0
:10075000540044454255473A20506F776572696EA0
:1007600067204F4E2E2E0041540041540044454214
:1007700055473A20506F776572696E67204F46463D
:100780002E2E0000002200250028002B002E003114
:1007900000340002010000050108010B01000020E7
:1007A000002300260029002C002F00320000010049
:1007B0000003010601090100000A0B02090C0D0EDD
:1007C0000807030401000000000000000000000012
:1007D0000000000000000000000000000000000019
:1007E00000000012111000000000000000000000D6
:1007F00000000000000000000000000000436F6ED9
:10080000666967205265736574210052657365746B
:1008100074696E6720636F6E6669672E2E004C6F79
:100820006164696E672064796E616D6963206D6FC4
:1008300064756C65733A20000000210024002700D5
:100840002A002D00300033000101000004010701DF
:100850000A010102102020080810204010204080CA
:100860000201020108040201010204081020408074
:100870008040201008040201800402018040201002
:10088000080402010804020101020408102040804B
:100890000102040810204080050505050705080829
:1008A0000808020202020A0A0808040404040101FA
:1008B000010101010101030303030303030304070F
:1008C00007070C0C0C0C0C0C0C0C020202020606A6
:1008D0000606060606060B0B0B0B0B0B0B0B4672E4
:1008E00065652052414D3A2000496E697420534499
:1008F0003A20005374617274696E67206669726D84
:1009000077617265200048545450206661696C65B7
:10091000643A20004854545020726573706F6E73AF
:1009200065206661696C65643A2000426F64793ABB
:1009300000436F6E74656E74206C656E6774683A00
:1009400020004854545020504F5354206661696C25
:100950006564004854545020474554206661696CD2
:100960006564005061796C6F616420746F6F206CF6
:10097000617267650044454255473A436F6E6E6544
:100980006374696E6720746F20485454503A200095
:100990004552524F523A2048545450206E6F7420A2
:1009A000696E697469616C697A65640053656E6427
:1009B000696E67207061796C6F61643A00415A50CA
:1009C0005542207374617475733A20004552524F3A
:1009D000523A204D515454206E6F7420696E6974E0
:1009E00069616C697A65640053656E64696E67203D
:1009F0007061796C6F61643A005055422073746184
:100A00007475733A20004552524F523A204D51545A
:100A100054206E6F7420696E697469616C697A65BF
:100A2000640053656E64696E67207061796C6F61F4
:100A3000643A005442505542207374617475733A9D
:100A400020004552524F523A204D515454206E6F5F
:100A50007420696E697469616C697A6564005365B4
:100A60006E64696E67207061796C6F61643A003EF4
:100A70003E204D5154545F434F4E4E454354494FD1
:100A80004E5F54494D454F55540053617665204F94
:100A90004B00467265652052414D3A200044454264
:100AA00055473A436F6E6E656374656420746F20BA
:100AB000415A005375627363726962696E6720728E
:100AC00070633A200044454255473A4D51545420F2
:100AD000436F6E6E656374696E67004445425547A7
:100AE0003A436F6E6E656374696E6720746F204160
:100AF0005A3A200044454255473A4D5154542041FA
:100B00005A20496E69740044454255473A436F6E16
:100B10006E656374656420746F205442005375627F
:100B20007363726962696E67207270633A20004471
:100B3000454255473A4D51545420436F6E6E65639C
:100B400074696E670044454255473A436F6E6E655F
:100B50006374696E6720746F2054423A20004445E4
:100B60004255473A4D51545420496E6974004445EA
:100B70004255473A436F6E6E656374656420746FC7
:100B8000204D515454005375627363726962696EEB
:100B90006720746F7069633A200044454255473AB4
:100BA0004D51545420436F6E6E656374696E6700D7
:100BB00044454255473A436F6E6E656374696E678C
:100BC00020746F204D5154543A20004445425547FB
:100BD0003A4D51545420496E69740044454255477A
:100BE0003A4854545020496E6974004E6F74205234
:100BF00065676973746572656400526567697374CB
:100C00006572696E672E2E004D6F64656D3A2032F5
:100C10004700C850A96211241FBECFEFD1E2DEBF4A
:100C2000CDBF00E00CBF19E0A0E0B2E0E4ECFFEDC6
:100C300000E00BBF02C007900D92AE37B107D9F7A5
:100C400022E1AEE7B9E001C01D92AD35B207E1F790
:100C500016E0CAE0D6E000E006C021970109802F27
:100C6000FE010E944368C930D10780E00807A9F758
:100C70000E9481520C94D06F0C940000CF93DF93AC
:100C8000EC019A01AB01E889F98982E080832115A2
:100C900081EE38074105510581F160E079E08DE38F
:100CA00090E00E94B86621503109410951095695DA
:100CB000479537952795EC85FD851082EE85FF8554
:100CC0002083188EEC89FD8986E08083EA89FB8980
:100CD000808180618083EA89FB898081886080834C
:100CE000EA89FB89808180688083EA89FB89808129
:100CF0008F7D8083DF91CF910895E889F9891082F3
:100D000020E1D9CFCF93DF93EC01FA013296E60FC1
:100D1000F71FDC019D012C1B3D0BCF01861B970BA0
:100D20004D91442311F04193F5CFAC01421B530B7D
:100D3000640F751FFB013297308361507109FB010D
:100D40002083DF91CF91089580342FE19207E9F459
:100D500029E030E03093EE0C2093ED0C2091ED0C67
:100D60003091EE0CA901440F551F440F551F4072DE
:100D700027702860242B38E10FB6F894A89530939B
:100D800060000FBE209360000895803A2FE0920724
:100D90004CF088E090E09093EE0C8093ED0C80EAAC
:100DA0009FE0DCCF803D97404CF087E090E090934F
:100DB000EE0C8093ED0C80ED97E0D0CF86E090E0D4
:100DC0009093EE0C8093ED0C88EE93E0C7CFAF923A
:100DD000BF92CF92DF92EF92FF920F931F93CF9328
:100DE000DF9300D000D0CDB7DEB7FC0113821282B2
:100DF00083E793E0918380835F0181ECA81A8EEFF3
:100E0000B80A83EA93E0D50111969C938E931296CB
:100E10001D921D921D921C921597CF01855B9E4FCE
:100E20000FEF1FEFDC010D931C93DB011296CD90A9
:100E3000DD90ED90FC901597D5011296CD92DD9244
:100E4000ED92FC921597189611965C934E9312971B
:100E500011961C921E9218978EE091E48D939C93AC
:100E600035832483E75BFE4F1182108226960FB6EE
:100E7000F894DEBF0FBECDBFDF91CF911F910F91D0
:100E8000FF90EF90DF90CF90BF90AF900895FC015E
:100E900077A766A756AB45AB0895DC01A60FB71F31
:100EA000640F751FFC01E60FF71FAD01CD01841B18
:100EB000950B821793071CF48D918193F7CF0895BA
:100EC000089508950895DC01ED91FC910190F08161
:100ED000E02D1994EF92FF920F931F93CF93DF931E
:100EE0008C017B01D0E0C0E0F701EC0FFD1F6491A5
:100EF000662361F0D801ED91FC910190F081E02D25
:100F0000C8011995892B11F02196EECFCE01DF9102
:100F1000CF911F910F91FF90EF900895AF92BF92E4
:100F2000CF92DF92EF92FF920F931F93CF93DF93B5
:100F30006C017B018B01040F151FEB015E01AE18E4
:100F4000BF08C017D10759F06991D601ED91FC9106
:100F50000190F081E02DC6011995892B79F7C50123
:100F6000DF91CF911F910F91FF90EF90DF90CF9085
:100F7000BF90AF900895FB014481558160817181DC
:100F80000C948E07DC0190E030E020E08AE0FB0169
:100F90004191BF01442311F150ED540F5A3090F4A8
:100FA000829FF001839FF00D11249F01205331098E
:100FB000240F311D47FD3A952F3F310541F338F39A
:100FC00080E008954E32E1F79330D1F3FD01E90F4F
:100FD000F11D22839F5F30E020E0D9CF933081F76D
:100FE00015962C9381E00895FC01A089B1898C911C
:100FF000A689B78982FD0FC09C91818D8F5F8F7309
:10100000228D821749F0A18DAE0FBF2FB11D5D96C5
:101010009C93818F08958C910895FC01538D448D8C
:10102000252F30E0842F90E0821B930B541710F093
:10103000CF96089501970895FC01918D828D9817A0
:1010400061F0A28DAE0FBF2FB11D5D968C91928D78
:101050009F5F9F73928F90E008958FEF9FEF0895A9
:10106000FC01918D828D981731F0828DE80FF11D72
:10107000858D90E008958FEF9FEF0895FC01918D8D
:10108000228D892F90E0805C9F4F821B91098F7386
:101090009927089587E69AE00E943E0821E0892B6F
:1010A00009F420E0822F089584E09BE00E943E082E
:1010B00021E0892B09F420E0822F089581EA9BE04A
:1010C0000E943E0821E0892B09F420E0822F089538
:1010D0008EE39CE00E943E0821E0892B09F420E089
:1010E000822F0895FC01A48DA80FB92FB11DA35A1A
:1010F000BF4F2C91848D90E001968F739927848F38
:10110000A689B7892C93A089B1898C91837080645A
:101110008C93938D848D981306C00288F389E02DFB
:1011200080818F7D80830895EF92FF920F931F93AC
:10113000CF93DF93EC0181E0888F9B8D8C8D98138A
:101140001AC0E889F989808185FF15C09FB7F89496
:10115000EE89FF896083E889F989808183708064E2
:1011600080839FBF81E090E0DF91CF911F910F912D
:10117000FF90EF900895F62E0B8D10E00F5F1F4F3C
:101180000F731127E02E8C8D8E110CC00FB607FC4B
:10119000FACFE889F989808185FFF5CFCE010E94D9
:1011A0007208F1CFEB8DEC0FFD2FF11DE35AFF4FCD
:1011B000F0829FB7F8940B8FEA89FB898081806267
:1011C000CFCFCF93DF93EC01888D8823B9F0AA8924
:1011D000BB89E889F9898C9185FD03C0808186FDF2
:1011E0000DC00FB607FCF7CF8C9185FFF2CF808141
:1011F00085FFEDCFCE010E947208E9CFDF91CF913C
:101200000895CF93DF93EC010E94E108EA89FB89FE
:1012100080818F7E8083EA89FB898081877F8083BC
:10122000EA89FB8980818F778083EA89FB898081C5
:101230008F7D80838A8D898FDF91CF91089580E0A3
:1012400090E0892B29F00E94680881110E9400001B
:1012500080E090E0892B29F00E945E0881110E94B5
:10126000000080E090E0892B29F00E945408811151
:101270000E94000080E090E0892B29F00E944A083B
:1012800081110C94000008958150823108F05AC0F9
:10129000E82FF0E08827E05BF64F8F4F0C9443680F
:1012A00070097409620968096C09A20977097D0946
:1012B000810987098B098F0995099909A2099D0957
:1012C000A309A709809180008F77809380000895FB
:1012D000809180008F7DF9CF80918000877FF5CF4E
:1012E00084B58F7784BD089584B58F7DFBCF8091C1
:1012F000B0008F778093B00008958091B0008F7D0B
:10130000F9CF809190008F7780939000089580911D
:1013100090008F7DF9CF80919000877FF5CF8091ED
:10132000A0008F778093A00008958091A0008F7D0A
:10133000F9CF8091A000877FF5CF809120018F7732
:10134000809320010895809120018F7DF9CF8091B5
:101350002001877FF5CFCF93DF93282F30E0F9016D
:10136000E954F84F8491F901EE5AF74FD491F901FD
:10137000E856F74FC491CC23A1F081110E94440993
:10138000EC2FF0E0EE0FFF1FE356F84FA591B4915C
:10139000EC91ED2381E090E009F480E0DF91CF91C2
:1013A000089580E090E0FACF1F93CF93DF93282F2A
:1013B00030E0F901E954F84F8491F901EE5AF74F02
:1013C000D491F901E856F74FC491CC23A9F0162F18
:1013D00081110E944409EC2FF0E0EE0FFF1FED5742
:1013E000F84FA591B4918FB7F894EC91111108C002
:1013F000D095DE23DC938FBFDF91CF911F910895AD
:10140000DE2BF8CF61E088E20E94D40961E085E23A
:101410000C94D40960E088E20E94D40960E085E27F
:101420000C94D409CF93DF9390E0FC01EE5AF74F70
:1014300024918856974FFC0184918823C9F090E04D
:10144000880F991FFC01E85CF74FA591B491FC014E
:10145000ED57F84FC591D49161110DC09FB7F89425
:101460008C91209582238C938881282328839FBF89
:10147000DF91CF910895623051F49FB7F8943C9179
:10148000822F809583238C93E8812E2BEFCF8FB70B
:10149000F894EC912E2B2C938FBFEACF60E086E37B
:1014A0000E94120A60E087E30E94120A60E088E36B
:1014B0000E94120A60E089E30E94120A60E08AE357
:1014C0000E94120A60E08BE30E94120A60E08CE343
:1014D0000E94120A60E08DE30E94120A60E083E439
:1014E0000E94120A60E084E40E94120A61E080E235
:1014F0000E94120A61E080E20E94D40961E081E268
:101500000E94120A61E081E20E94D40960E087E251
:101510000E94120A62E081E40E94120A61E087E000
:101520000E94120A61E087E00E94D40960E086E030
:101530000E94120A61E08FE20E94120A61E08FE2CB
:101540000E94D40960E08EE20E94120A61E08DE2FE
:101550000E94120A61E08DE20E94D40960E08CE2F0
:101560000E94120A61E088E00E94120A61E088E0AD
:101570000E94D40961E08EE10E94120A61E08EE1CE
:101580000E94D40961E088E20E94120A60E088E2C9
:101590000E94D40961E085E20E94120A60E085E2BF
:1015A0000E94D40961E08AE20E94120A60E08AE2A5
:1015B0000E94D40961E085E40E94120A61E085E49A
:1015C0000E94D40961E081E30E94120A60E081E395
:1015D0000E94D40960E08EE30E94120A60E08FE36B
:1015E0000E94120A60E080E40E94120A40E855E27C
:1015F00060E070E081EA9BE00E943E0640E052EC31
:1016000061E070E084E09BE00E943E0640E052EC26
:1016100061E070E087E69AE00C943E06863308F0BD
:10162000865320917B00982F9870277F922B909360
:101630007B008770806480937C0080917A00806456
:1016400080937A0080917A0086FDFCCF80917800AB
:101650009091790008953FB7F8948091F5099091A1
:10166000F609A091F709B091F80926B5A89B05C025
:101670002F3F19F00196A11DB11D3FBFBA2FA92F11
:10168000982F8827BC01CD01620F711D811D911D0E
:1016900042E0660F771F881F991F4A95D1F708957A
:1016A0008F929F92AF92BF92CF92DF92EF92FF9272
:1016B0006B017C010E942B0B4B015C01C114D10416
:1016C000E104F104B9F00E942B0B681979098A0929
:1016D0009B09683E73408105910580F321E0C21AA1
:1016E000D108E108F10888EE880E83E0981EA11C5D
:1016F000B11CE4CFFF90EF90DF90CF90BF90AF9000
:101700009F908F9008952FB7F8946091F109709190
:10171000F2098091F3099091F4092FBF08958F92F7
:101720009F92AF92BF92EF92FF920F931F93CF932E
:10173000DF93CDB7DEB7DA950FB6F894DEBF0FBEF4
:10174000CDBF8091270D898383E08A838091280D06
:101750009091290D9B838C8380912A0D90912B0D64
:101760009D838E83CE0101967C01AE01495F5F4F60
:10177000FC018FEF9FEF87012191822728E030E065
:10178000BC016170772796958795672B21F0A1E0C2
:101790008A27A0EA9A272150310991F7E417F50723
:1017A00059F78F83988719868091250D9091260D82
:1017B000DC01ED91FC910284F385E02D19950196F1
:1017C00099F7E0913B0EF0913C0E309709F0199596
:1017D0005701E8E0AE0EB11C8091250D9091260DC9
:1017E000D7016D917D01DC01ED91FC910190F081BB
:1017F000E02D1995EA14FB0479F78091250D90915D
:10180000260DDC01ED91FC910680F781E02D199504
:10181000E0913D0EF0913E0E309709F019950E942F
:10182000830B4B015C01F12C88E0E82E8091250DA3
:101830009091260DDC01ED91FC910084F185E02D65
:101840001995892B09F44BC08091250D9091260D97
:10185000DC01ED91FC910284F385E02D1995F801EE
:10186000EF0DF11D8083EA94F394B5E0FB1260C0A4
:1018700099818091270D981315C1EA818E2F8F775A
:10188000833009F011C1E7FF33C08B81811162C041
:101890002FEF3FEFE0E08F2D90E0AC014250510977
:1018A0006E2F70E0641775070CF0ADC0600F711FEC
:1018B000DB016C91262768E070E0D901A170BB279D
:1018C00036952795AB2B21F0B1E02B27B0EA3B27CB
:1018D0006150710991F7EF5FE3CF82EE36C0E0917E
:1018E000390EF0913A0E309709F4BFCF1995BDCF5C
:1018F000E350E531E8F4F0E08827EE57F34F8F4FDF
:101900000C944368970C970CC60CC60C980C980C5A
:10191000980C980C980C980C980C980CC60CC60C4B
:10192000980C980C980C980C980CC30C970CEB80A6
:101930000E94830B681979098A099B09653671052C
:101940008105910508F0C9CF80E0EE2011F18823D0
:1019500009F46CCF1092320E1092340E1092330EA6
:101960001092370ED3950FB6F894DEBF0FBECDBFE1
:10197000DF91CF911F910F91FF90EF90BF90AF90AB
:101980009F908F900895B5E0EB2ED2CFA3E0EA2E82
:10199000CFCF8111DFCFE4E0EF1508F479CF8A8152
:1019A000853030F4833030F48130E0F580E0D2CF00
:1019B0008731E1F76B8170E0759567952091380E5E
:1019C00040E0842F90E0861797070CF068C0403401
:1019D000B8F49C012E5F3F4F220F331F880F991FD1
:1019E000FC01EB5DF24FDE01A20FB31F8C91200FC3
:1019F000311FD9019C918927982789279087878350
:101A0000242F4F5FDECF400F511FFA014081421358
:101A100007C08C0F9D1FDC018C91831709F4BFCF89
:101A200083EE98CF6B81462F50E0559547953091C6
:101A3000380E20E0822F90E084179507E4F42034DC
:101A4000B8F4880F991FFC01EB5DF24FA5E0B0E000
:101A5000AC0FBD1FA80FB91F3C91A4E0B0E0AC0FC4
:101A6000BD1F8A0F9B1FDC018C91932F908787836A
:101A7000322F2F5FDFCF3093380E60FF97CF2034A7
:101A800068F4880F991FFC01EB5DF24F8C0F9D1FCE
:101A9000DC0114968C9190E0908787832F5F2093D0
:101AA000380E84CF80EE56CF81EE54CF8F929F9226
:101AB000AF92BF92CF92DF92EF92FF920F931F935C
:101AC000CF93DF93EC016A017B0110E000E00E94FC
:101AD000830B688779878A879B87E881F9810284ED
:101AE000F385E02DCE01199597FF21C00E94830B4D
:101AF00088849984AA84BB84681979098A099B0916
:101B00008C809D80AE80BF80681579058A059B0515
:101B100020F3C801DF91CF911F910F91FF90EF90BB
:101B2000DF90CF90BF90AF909F908F900895F70176
:101B300081937F010F5F1F4FC016D10641F6E9CF99
:101B4000E82FF0E0DF01AA0FBB1FA050BE4F119697
:101B50007C936E93883008F069C08827ED54F24F6B
:101B60008F4F0C944368E90DF10DBB0DC30DCF0DE4
:101B7000DC0DFD0D0A0E809169008C7F482B40938F
:101B80006900E89A089580916900837F440F551F8A
:101B9000440F551F482B40936900E99A089580919E
:101BA00069008F7C74E0440F551F7A95E1F7482B4C
:101BB00040936900EA9A0895809169008F7366E006
:101BC000440F551F6A95E1F7482B40936900EB9A43
:101BD000089580916A008C7F482B40936A00EC9AAC
:101BE000089580916A00837F440F551F440F551F4D
:101BF000482B40936A00ED9A089580916A008F7C8B
:101C000024E0440F551F2A95E1F7482B40936A00C2
:101C1000EE9A089580916A008F7396E0440F551FE5
:101C20009A95E1F7482B40936A00EF9A089588301F
:101C3000F0F4282F30E08150873000F5E82FF0E0F5
:101C40008827EA5DF14F8F4F0C944368400E2D0EAC
:101C5000380E3A0E3C0E420E440EE898220F331F07
:101C6000F901E050FE4F86E49EE091838083089561
:101C7000E998F4CFEA98F2CFEB98F0CFEC98EECF5A
:101C8000ED98ECCFEE98EACFEF98E8CF089508955D
:101C9000089590E080E0089590E080E00895CF926C
:101CA000DF92EF92FF920F931F93CF93DF938C01FC
:101CB0000F591F4FD8012D913C9112161306C4F5F0
:101CC000EC016C01BDE5CB0ED11CF6018081918148
:101CD000DC01EC900E2C000CFF082FEF30E04FEFF2
:101CE0005FEF61E070E00E944D07D601ED91FC913D
:101CF000D8018D919C911197E80FF91F10828D9159
:101D00009C911197019711969C938E931816190622
:101D10002CF0CD59DF4F18821D921C92C701DF9124
:101D2000CF911F910F91FF90EF90DF90CF9008958A
:101D3000EE24EA94FE2CF2CF87E490E00895875BCE
:101D40009F4F0895089590E080E0089560E070E06E
:101D5000CB010895CF93DF93FC01DC0112969C0127
:101D6000275B3F4FEB01A217B30771F49B01295B7F
:101D70003F4F80E06217730751F0DB019D91BD0179
:101D80009F3FC1F381E0F6CF89918D93ECCF811114
:101D90000CC0128213821482158216821782E95BAC
:101DA000FF4F83E090E091838083DF91CF9108958E
:101DB000DC011296FB01AC01475B5F4FA417B5072E
:101DC00019F02D912193FACF8D5A9F4FFC0110826B
:101DD00087E490E00895DC0180E0615038F0ED91F7
:101DE000E827F0E0E754FB4F8491F7CF0895DC013A
:101DF0002C911196ED91FC91F8948181822B818335
:101E00009281322F30959323928387E090E001975F
:101E1000F1F781818323818383E290E00197F1F7D9
:101E200090817894EFECF0E03197F1F7922381E024
:101E300009F480E00895FC0190810180F281E02D99
:101E4000292F209560FF14C0F89482818223828319
:101E50008181892B8183A3E2B0E01197F1F7828120
:101E6000982B9283789487ED90E00197F1F708958D
:101E7000F8948281822382838181892B8183AFEFD1
:101E8000B0E01197F1F78281982B928378948FE0DC
:101E900090E0EBCFDF92EF92FF920F931F93CF93DF
:101EA000DF93EC01D62EE42E08E010E0FF24F3943B
:101EB00061E08D2D8F2109F460E0CE010E941B0F9F
:101EC000FF0C01501109A1F7E11010C0F894E9814D
:101ED000FA8191818881809589238183E981FA81C2
:101EE000928188818095892382837894DF91CF9134
:101EF0001F910F91FF90EF90DF900895EF92FF9266
:101F00000F931F93CF93DF938C017B0140E065E536
:101F10000E944A0FE70188E0E80EF11C699140E059
:101F2000C8010E944A0FCE15DF05C1F7DF91CF919E
:101F30001F910F91FF90EF900895FC019081018017
:101F4000F281E02DF8948181292F209582238183CD
:101F500078943DE743E050E0315029F1DA011197E0
:101F6000F1F780818923C1F3F894828182238283EF
:101F70008181892B81837894ABE7B7E01197F1F7E2
:101F8000F894818182238183A3E1B1E01197F1F775
:101F90008081982381E009F080E07894E3E6F6E020
:101FA0003197F1F7089580E008954F925F926F9214
:101FB0007F928F929F92AF92BF92CF92DF92EF92D9
:101FC000FF920F931F93CF93DF938C017B01EA0164
:101FD000FC01868197810E949D0F8823D9F1B7016A
:101FE000F801868197810E947E0F40E06EEBF80138
:101FF000868197810E944A0F6E015E01F9E0AF0E63
:10200000B11C7E01F8018680978088E0682E712CD3
:10201000512C44244394C4010E94F70E811154288A
:10202000440CF1E06F1A7108B1F7F70151927F018A
:10203000AE16BF0639F7F801868197810E949D0F81
:10204000813041F4F60181916F01811105C0EE15D7
:10205000FF05C1F790E008C068E0CE010E94EB0EDA
:1020600091E028852813F6CF892FDF91CF911F911A
:102070000F91FF90EF90DF90CF90BF90AF909F9027
:102080008F907F906F905F904F900895CF93DF93E4
:1020900000D000D000D0CDB7DEB7AE014F5F5F4FAC
:1020A0000E94D50F882331F08D818F33A9F020F461
:1020B0008F31A1F080E007C08F3521F08F37D1F745
:1020C0008CE001C08BE029960FB6F894DEBF0FBEFE
:1020D000CDBFDF91CF9108958AE0F5CF89E0F3CFAE
:1020E00087E090E0089509960895FC01138ADC01C9
:1020F0001296FB010996A817B90719F02D912193A3
:10210000FACF87E090E008956FEF7FEFCB0108955D
:10211000FC01838990E0089581E190E00895439661
:102120000895FC0147835087618772870895FC01F9
:1021300067817085818592850E9483650895DC01A1
:102140001296FB01AC014D5E5F4FA417B50719F065
:102150002D912193FACFFC0111A212A213A214A275
:1021600015A281E190E00895CF92DF92EF92FF9265
:10217000FC0181A1811117C047855089052E000CF3
:10218000660B770B81E090E0C2A0D3A0E4A0F5A09D
:10219000C416D506E606F70608F480E0FF90EF9037
:1021A000DF90CF90089581E090E0F8CF85E090E057
:1021B000089507960895FC01118ADC011296FB012F
:1021C0000796A817B90719F02D912193FACF85E04A
:1021D00090E00895FC01818990E00895CF93DF930A
:1021E000EC01E981FA81908181819CBD8DBDE981FD
:1021F000FA8160E082810E94D40981E08B83DF91C3
:10220000CF9108958EBD0DB407FEFDCF08958FEFD9
:102210008EBD0DB407FEFDCF8EB508950F931F93AD
:10222000CF93DF93EC010E94830B8B010E94071177
:102230008F3F69F00E94830B601B710BC617D70795
:10224000A8F780E0DF91CF911F910F91089581E071
:10225000F9CFCF93DF93FC012381222361F0EC01BE
:102260000180F281E02D61E082810E94D4098FEF2C
:102270000E9402111B82DF91CF910895DF92EF92AD
:10228000FF920F931F93CF93DF938C01C62FD22F12
:10229000F32EE42ED52EFC018381811103C0C801E9
:1022A0000E94EE10CC2321F08CE291E00E940E11EE
:1022B0008C2F80640E9402118D2D0E9402118E2DA0
:1022C0000E9402118F2D0E9402118D2F0E94021177
:1022D00087E8C11101C085E90E9402110E9407111F
:1022E000CBE00E940711F801848387FF02C0C15030
:1022F000C1F7DF91CF911F910F91FF90EF90DF9089
:1023000008950F931F93CF93DF93EC0189018D8183
:10231000833039F089E0440F551F661F771F8A9577
:10232000D1F79A01AB0168E1CE010E943E118823EA
:1023300019F082E3888339C08EEF0E940211F80100
:1023400080818EBD818132961E5F0DB407FEFDCF68
:102350008EBDE017F10711F08191F7CF0DB407FEA4
:10236000FDCF8FEF0E9402118FEF0E9402110E9499
:1023700007118C838F71853099F480ED97E00E946E
:102380000E11182F8AE51123A9F220E030E0A901EF
:102390006DE0CE010E943E11882361F089E2CACF30
:1023A00087E58883CE010E942911CE010E94291160
:1023B00010E007C00E9407118111F0CFCE010E94EA
:1023C0002911812FDF91CF911F910F910895EF92E5
:1023D000FF921F93CF93DF93EC017C0187E0E80E1F
:1023E000F11C4B815C816D817E81E981FA819701CD
:1023F000808191810E948111182F811108C010E005
:10240000812FDF91CF911F91FF90EF9008958881E8
:1024100081FD04C088818E7F8883F2CFE981FA81B3
:102420004B815C816D817E8184859585A685B7858C
:10243000480F591F6A1F7B1F9701808191810E945D
:1024400081118111E7CFDBCF9F92AF92BF92CF92E4
:10245000DF92EF92FF920F931F93CF93DF93EC01E4
:102460006A017B01922E8B819C81AD81BE818C158E
:102470009D05AE05BF0509F474C0888180FD17C0B5
:10248000E981FA8100811181F8018581A701960116
:10249000833001F561E1C8010E943E11882311F1EA
:1024A00080E3F8018083C8010E94291105C0CE0194
:1024B0000E94E7118111E4CF90E080E0DF91CF919D
:1024C0001F910F91FF90EF90DF90CF90BF90AF9052
:1024D0009F90089589E0220F331F441F551F8A954E
:1024E000D1F7D8CF0E94830B5B010E940711F8013E
:1024F00084838F3F71F40E94830B6A197B09693EC4
:10250000734098F385E5F8018083C8010E94291182
:10251000CACF8E3F11F080E5F6CF8FEF8EBDFE0162
:102520003796DE01AA5FBD4F9FEF0DB407FEFDCFCA
:102530008EB59EBD8193EA17FB07B9F70DB407FE70
:10254000FDCF8EB58C93F80114820E9407110E9472
:102550000711C8010E9429111882CB82DC82ED820A
:10256000FE82288129292883CE010796A7CF8F9242
:102570009F92AF92BF92CF92DF92EF92FF920F9312
:102580001F931092AB0E41E050E060E070E040938A
:10259000AE0E5093AF0E6093B00E7093B10E26EA5C
:1025A0003EE03093C80E2093C70E1092C60E4FEF38
:1025B0005FEFBA014093C90E5093CA0E6093CB0EE1
:1025C0007093CC0E882309F450C020E040E050E026
:1025D000BA0186EC9EE00E942412009761F480E02C
:1025E0001F910F91FF90EF90DF90CF90BF90AF9031
:1025F0009F908F900895FC01E254FE4F20812F7729
:1026000071F78A539E4FFC01C080D180E280F38035
:10261000C114D104E104F10411F320E0B701A601D3
:1026200086EC9EE00E942412FC01892BC1F2838576
:1026300094858115924099F68089823081F686854D
:102640009785892B61F225852093A80E8FEF820F45
:102650008093A90E80E091E0291769F08F5F89309F
:1026600041F488E08093AA0EBACFC12CD12C760118
:10267000D4CF990FF1CF8093AA0E4689578970E085
:1026800060E04115510521F444A155A166A177A14F
:102690004093B20E5093B30E6093B40E7093B50E88
:1026A0002685378546015701820E931EA11CB11C59
:1026B0008092BA0E9092BB0EA092BC0EB092BD0E4C
:1026C000218932893093AD0E2093AC0E440F551FF3
:1026D000661F771F480D591D6A1D7B1D4093C20E52
:1026E0005093C30E6093C40E7093C50E2189328936
:1026F000A5E0220F331FAA95E1F721503E4F232F6B
:1027000033272695420F531F611D711D4093B60E4E
:102710005093B70E6093B80E7093B90E0389148965
:1027200030E020E00115110521F400A111A122A142
:1027300033A1C41AD50AE60AF70AC00ED11EE21E5A
:10274000F31E04C0F694E794D794C7948A95D2F701
:10275000D701C6010196A11DB11D8093BE0E9093B5
:10276000BF0EA093C00EB093C10E85EFC8168FE0C8
:10277000D806E104F10420F48CE08093AB0E2FCF57
:1027800080E125EFC2162FEFD206E104F10468F0D4
:1027900084A595A5A6A5B7A58093C20E9093C30E58
:1027A000A093C40EB093C50E80E28093AB0E81E07F
:1027B00017CFFC01DB0111962C91119730E084E0DA
:1027C000359527958A95E1F723708C91880F880FAE
:1027D000280F208312962C91129730E0359527957B
:1027E000359527952F7011968C91119730E1839F25
:1027F000C0011124280F218312968C91129790E426
:10280000899F9001112413968C91820F82830895E1
:102810008091FE099091FF09891B990B08952091E1
:10282000A309260F3327331F21323105ECF4209101
:102830003D0AFC0190E080E0243069F082E00895D8
:10284000A091A3092191AC014D57564FA40FB52F6C
:10285000B11D2C930196861798F38091A309680FF8
:102860006093A30980E0089581E0089510923D0AE5
:1028700081E080933C0A1092170A61E084E10E9493
:10288000D40961E085E10E94D409E9EBF0E08081A0
:102890008E7F808380818D7F808388E48093B800E1
:1028A00085E48093BC000895CF93DF9391E09093EB
:1028B00082098823B9F0C091B800D091BA00809104
:1028C000BC008A7B8093BC0060E084E10E94D40954
:1028D00060E085E10E94D4090E943614D093BA00CA
:1028E000C093B800DF91CF9108958F929F92AF92DD
:1028F000BF92CF92DF92EF92FF920F931F93CF93ED
:10290000DF93D091660AD13208F0D7C0182FC0915A
:10291000650A0E942B0B6B017C0180913D0A81119D
:102920006BC082E080933D0A10933C0A8FEF809346
:102930003B0A10923A0AD093390AA5E4BAE0E9E1D9
:10294000FAE080E0D81391C01092180A8091180A1A
:10295000CC0FC82BC093180A8091170A813009F058
:1029600088C01092170A0E942B0B6B017C0180918A
:10297000180A8093BB0080913F0A9091400AA09171
:10298000410AB091420A892B8A2B8B2BA1F00E941D
:102990002B0B00913F0A1091400A2091410A30917F
:1029A000420A6C197D098E099F0906171707280727
:1029B000390708F442C08091BC0083FDD8CF85EC74
:1029C0008093BC000E942B0B6B017C0180913D0A1F
:1029D000823009F450C080913B0A8F3F09F46FC0E8
:1029E00080913B0A803209F46CC080913B0A8033AD
:1029F00009F469C084E026C080913F0A9091400AA2
:102A0000A091410AB091420A892B8A2B8B2B09F4A1
:102A100084CF0E942B0B80903F0A9090400AA09098
:102A2000410AB090420A6C197D098E099F098616E9
:102A30009706A806B90608F070CF80913E0A0E945A
:102A4000541485E01092440A1092660A1092430AC8
:102A5000DF91CF911F910F91FF90EF90DF90CF907A
:102A6000BF90AF909F908F9008959D9191938F5FAD
:102A700069CF85EEA5CF80913F0A9091400AA09141
:102A8000410AB091420A892B8A2B8B2B09F49ECFE5
:102A90000E942B0B00913F0A1091400A2091410A9D
:102AA0003091420A6C197D098E099F090617170794
:102AB0002807390708F08ACFC0CF81E0C3CF80E074
:102AC000C1CF82E0BFCF83E0BDCFE091FF0980910D
:102AD000FE09E81730F4F0E0EA53F64F808190E009
:102AE00008958FEF9FEF08959091FF098091FE095F
:102AF0002FEF3FEF981748F4E92FF0E0EA53F64F35
:102B0000208130E09F5F9093FF09C9010895CF9223
:102B1000DF92EF92FF920F931F93CF93DF937C018D
:102B2000CB018A012091430A222389F0EB016B013A
:102B3000C40ED51ECC15DD0569F06991D701ED9164
:102B4000FC910190F081E02DC7011995F3CF642F1E
:102B50000E940F14C801DF91CF911F910F91FF9038
:102B6000EF90DF90CF900895CF93DF931F92CDB772
:102B7000DEB769832091430A2223F9F02091660A87
:102B8000203258F021E030E0FC013383228390E0D2
:102B900080E00F90DF91CF9108958091440AE82F53
:102BA000F0E0EB5BF54F998190838F5F8093440A4F
:102BB0008093660A81E090E0ECCF61E0CE0101965F
:102BC0000E940F14F7CFCF92DF92EF92FF920F93F4
:102BD0001F93CF93DF937C01EB016A0181E0809327
:102BE000430A88E68093650A1092440A1092660AA6
:102BF0008FEE9CE00E94B41587010C0F1D1FCC0DB9
:102C0000DD1DC8018E199F098C179D0744F4F8013A
:102C100061918F018FEE9CE00E94B415F2CF81E0AC
:102C2000DF91CF911F910F91FF90EF90DF90CF90A8
:102C30000C947514CF93DF93EC018C859D85DC019A
:102C4000ED91FC910288F389E02D19952E853F8541
:102C50002830310569F42A893B891216130644F499
:102C600097FD06C02C893D89280F391F3D8B2C8B81
:102C7000DF91CF910895CF93DF93EC018C859D85F3
:102C8000DC01ED91FC910284F385E02D199597FD0F
:102C900010C02E853F852830310559F42A893B899B
:102CA0001216130634F42C893D892F5F3F4F3D8B5C
:102CB0002C8BDF91CF910895CF93DF93EC018C851E
:102CC0009D85DC01ED91FC910488F589E02D199535
:102CD0001F861E86198A188A1B8A1A8A1D8A1C8AD0
:102CE00085EA93E09F8B8E8B80E395E7A0E0B0E0D0
:102CF00088A399A3AAA3BBA3DF91CF910895FC0158
:102D000040A351A362A373A30895FC0160A171A124
:102D100082A193A1089521E0FC0184859585892BEA
:102D200009F420E0822F0895DC011C968D919C917E
:102D3000DC01ED91FC910088F189E02D19940F934D
:102D40001F93CF93DF9300D000D0CDB7DEB7DC0167
:102D50001C968D919C91DC01ED91FC910684F78588
:102D6000E02D23EA33E03A832983DB0112960D91AB
:102D70001D912D913C9115970B831C832D833E83D0
:102D8000BE016F5F7F4F199526960FB6F894DEBF90
:102D90000FBECDBFDF91CF911F910F910895DC0140
:102DA0001C968D919C91DC01ED91FC910680F78140
:102DB000E02D1994DC011C968D919C91DC01ED9124
:102DC000FC910484F585E02D1994FC018685978596
:102DD000089759F4228933892F3F320731F081E077
:102DE00044895589421753070CF480E00895CF9227
:102DF000DF92EF92FF920F931F93CF93DF9300D058
:102E00001F92CDB7DEB78C01F90180E0DE0111968B
:102E10007D019E2F9F77EE0FEF2FEE1FFF0BF19599
:102E2000309709F09068D701A80FB11D9C938F5F70
:102E3000309779F790E0FA01E81BF90B6483FA0107
:102E4000E81BF90B3596D701BD016E197F0968178C
:102E500079071CF46D916193F7CFFC013196D8018D
:102E600014968D919C917F01E20EF31EBA016E1BA8
:102E70007F0B6B5F7F4FDC01ED91FC910280F38152
:102E8000E02DA70119956C010E94830BF801EC5C01
:102E9000FE4F608371838283938381E0EC14FD0491
:102EA00009F080E00F900F900F900F90DF91CF917D
:102EB0001F910F91FF90EF90DF90CF900895EF92C8
:102EC000FF920F931F93CF93DF93EC018B017A0155
:102ED0000E94830BFE01EC5CFE4F60837183828352
:102EE00093838C819D81DC01ED91FC910280F381C3
:102EF000E02DA701B801DF91CF911F910F91FF90B5
:102F0000EF9019941F93CF93DF93EC01162F0E943B
:102F1000830BFE01EC5CFE4F60837183828393839D
:102F20008C819D81DC01ED91FC910190F081E02D7F
:102F3000612FDF91CF911F911994CF92DF92EF9281
:102F4000FF920F931F93CF93DF93EC018B010E94AD
:102F5000830B6B017C018C819D81DC01ED91FC91E7
:102F60000084F185E02D1995892B69F40E94830B6B
:102F70006C197D098E099F0968397A43810591058D
:102F800050F380E00CC08C819D81DC01ED91FC91BF
:102F90000284F385E02D1995F801808381E0DF91AB
:102FA000CF911F910F91FF90EF90DF90CF900895F8
:102FB00089E090E008950B960895CF93DF93FC018C
:102FC000DC0112969C01255F3F4FEB01A217B3076E
:102FD00071F49B01275F3F4F80E06217730751F048
:102FE000DB019D91BD019F3FC1F381E0F6CF899147
:102FF0008D93ECCF81110BC012828FEF9FEF9483E2
:103000008383968385839087878392878187DF91E7
:10301000CF910895DC011296FB01AC01455F5F4F33
:10302000A417B50719F02D912193FACFFC01158A49
:1030300089E090E00895FC01858990E0089582EE92
:1030400091E008958C519E4F0895DC011296FB018A
:10305000AC014C515E4FA417B50719F02D91219387
:10306000FACF82519E4FFC01108282EE91E00895CA
:1030700082519E4FFC01808190E00895DC011C96F6
:103080008D919C91DC01ED91FC910688F789E02DF2
:103090001994DC011C968D919C91DC01ED91FC91C1
:1030A0000084F185E02D199490E080E00895BF92AE
:1030B000CF92DF92EF92FF920F931F93CF93DF9304
:1030C000EC01B62EC72EED84E11004C00E949D0FC6
:1030D00081110EC01B861D861C8680E0DF91CF917A
:1030E0001F910F91FF90EF90DF90CF90BF900895C8
:1030F00040E060EFCE010E944A0FD12C01E011E0C8
:10310000CE010E94F70EF82ECE010E94F70E91E03C
:10311000F91218C0813099F51134E0F2EB86E11014
:1031200002C081E08D878B818823A1F22396EB2D4D
:10313000FC2DCF01089629912193E817F907D9F7BB
:1031400081E0CCCFED2DF0E0F8120FC08B85181781
:10315000A0F4DE01AE0FBF1F13968C91802379F48B
:10316000F12C193008F41C87E12EEC0FFD1F838130
:10317000902F9095892383830AC08113F1CFFE019C
:10318000ED0DF11D8381802B8383FF24F3946F2D3C
:10319000CE010E941B0F1F5F000F11F4D39401E0BA
:1031A00087E08D1508F0ACCFB7CF4F925F926F924A
:1031B0007F928F929F92AF92BF92EF92FF920F9366
:1031C0001F93CF93DF93CDB7DEB761970FB6F89417
:1031D000DEBF0FBECDBF8C01DC015296ED91FC919C
:1031E000868197810E94F70E813041F5F801E288CF
:1031F000F388D7011696ED91FC91179713861586E3
:103200001486128611861086178216821582148201
:103210001382BE01665F7F4F16968D919C910E942E
:103220005718811176C060E070E08EEF92ECD80103
:1032300054966D937D938D939C935797F801E288F4
:10324000F388D70116968D919C910E949D0F40E0C6
:103250006CECF701868197810E944A0FD7014C914F
:1032600064E416968D919C910E944A0FF701828129
:10327000882399F1E181E9508EEE482E82E0582EA4
:10328000E33038F4F0E0EE0FFF1FE359FD4F4080CC
:103290005180D70113968C911397882309F48AC023
:1032A0008C91811187C00E94830B4B015C01052C1E
:1032B000000C66087708F701868197810E94F70E57
:1032C000813059F00E94830B6419750986099709AA
:1032D000681579058A059B0570F3D80154966D91A0
:1032E0007D918D919C91579761960FB6F894DEBFB2
:1032F0000FBECDBFDF91CF911F910F91FF90EF9047
:10330000BF90AF909F908F907F906F905F904F9005
:10331000089567E0CE010A960E94EB0E9989891301
:1033200082CFAE014F5F5F4FBE01665F7F4FC70127
:103330000E94D50F882309F476CF6A8170E0762F3A
:103340006627770F770F770F2981B8E02B9F9001C1
:103350001124262B372B8A858031D1F4688570E0C3
:103360008F81FB01E81BF109CF019695982F8827E3
:10337000979587950E942F68CB014097B90153E03C
:10338000660F771F5A95E1F760789C01260F371F6B
:103390002138F4EE3F070CF446CFB901330F880B08
:1033A000990B0E94856520E030E040E05CE30E94DC
:1033B000E4653DCFB201550C880B990B0E94500B70
:1033C0008CCF4F925F926F927F928F929F92AF922B
:1033D000BF92EF92FF920F931F93CF93DF938C01D5
:1033E0007B01D42F81E08093430A88E68093650AAD
:1033F0001092440A1092660A8FEE9CE00E94B41567
:1034000081E00E9475140E942B0B4B015C0180919E
:103410003D0A811165C0CD2F81E080933D0A8093E4
:103420003C0A9FEF90933B0A10923A0A9D0F9093AB
:10343000390A8093180A8091180A806D8093180ABF
:103440008091170A813009F089C01092170A0E94F2
:103450002B0B4B015C018091180A8093BB0080917B
:103460003F0A9091400AA091410AB091420A892BEB
:103470008A2B8B2BA1F00E942B0B40903F0A50907F
:10348000400A6090410A7090420A681979098A09D5
:103490009B09461657066806790608F442C08091D3
:1034A000BC0083FDD8CF85EC8093BC000E942B0B21
:1034B0004B015C0180913D0A813009F451C080913B
:1034C0003A0A8D1710F4C0913A0AE9E1FAE0A6EC45
:1034D000B9E080E08C1751F191919D938F5FFACF05
:1034E00080913F0A9091400AA091410AB091420A0E
:1034F000892B8A2B8B2B09F48ACF0E942B0B4090AF
:103500003F0A5090400A6090410A7090420A681940
:1035100079098A099B09461657066806790608F054
:1035200076CF80913E0A0E945414C0E01092FF09A9
:10353000C093FE090E0D1F1DD0E08091FF099E0172
:10354000281B3109C9011816190664F58FEE9CE095
:103550000E947415F80181938F01EFCF85EEA4CFFF
:1035600080913F0A9091400AA091410AB091420A8D
:10357000892B8A2B8B2B09F49DCF0E942B0B40901B
:103580003F0A5090400A6090410A7090420A6819C0
:1035900079098A099B09461657066806790608F0D4
:1035A00089CFBFCFDF91CF911F910F91FF90EF9007
:1035B000BF90AF909F908F907F906F905F904F9053
:1035C0000895EF92FF920F931F93CF93DF938C0197
:1035D000EB0147E050E070E060E0CE010E94E119AD
:1035E0002881422F50E084E0559547958A95E1F770
:1035F0009AE0949FB001959F700D11242F70260FB3
:10360000372F311D3B8B2A8B2981422F50E034E02C
:10361000559547953A95E1F7949FB001959F700DA8
:1036200011242F70260F372F311D3D8B2C8B2A81B3
:10363000422F50E064E0559547956A95E1F7949FD5
:10364000B001959F700D11242F70260F372F311D5B
:103650003F8B2E8B2C81422F50E074E0559547957F
:103660007A95E1F7949FB001959F700D11242F700A
:10367000260F372F311D398F288F2D8124FBEE2403
:10368000E0F8F12C9E9DA0019F9D500D11242F70FC
:10369000240F352F311D3B8F2A8F8E81282F30E04C
:1036A000E4E035952795EA95E1F7929FA001939F75
:1036B000500D11248F70840F952F911D9D8F8C8F2D
:1036C0008CE0FE017296D80101900D928A95E1F787
:1036D000C801DF91CF911F910F91FF90EF90089556
:1036E0004F925F926F927F928F929F92AF92BF9212
:1036F000EF92FF920F931F93CF93DF93CDB7DEB777
:10370000A4970FB6F894DEBF0FBECDBFBC01CE01AB
:1037100049960E94E11A498C5A8C8B8C9C8CED8CBA
:10372000FE8C0F8D18A1A9A0BAA08BA19CA128E1A5
:10373000E6E1F2E0DE01119601900D922A95E1F7A3
:103740009C013595279535952795F9013196AC0162
:1037500043705527452B29F443E0A416B1040CF41B
:10376000F901052C000C66087708A0E84A1AACEBB2
:103770005A0AA2E96A0AA7EC7A0ADC0120E833E3D4
:1037800041EE51E00E94E566460E571E681E791E06
:103790002CE330E0D4010E944B68460E571E681E91
:1037A000791E20E13EE0D7010E944B68460E571E6D
:1037B000681E791EB1E0AB1AB108AA0CBB1C81E0EF
:1037C00090E08C0F9D1FA80EB91EC8010197D5016E
:1037D0000D911C91DC01A00FB11FAE0FBF1F20E89F
:1037E00031E541E050E00E94E566640D751D861DDF
:1037F000971DA4960FB6F894DEBF0FBECDBFDF9124
:10380000CF911F910F91FF90EF90BF90AF909F903D
:103810008F907F906F905F904F9008958091000AF5
:103820009091010A83960C94701BCF92DF92EF92D5
:10383000FF92CF93DF93FC012281222311F1EC014F
:10384000C380D480E580F6800E940E1C2B813C81D1
:103850004D815E81620F731F841F951F0E94B866A1
:10386000A7019601261B370B480B590BA8EEB3E0B6
:103870000E94DA66DF91CF91FF90EF90DF90CF90BA
:1038800008956FEF7FEFCB01F5CFCF92DF92EF92EC
:10389000FF920F931F93CF93DF93EC010E940E1CB6
:1038A0000D8D1E8D2F8D38A1601B710B820B930B1C
:1038B0000B851C852D853E850617170728073907B8
:1038C00010F589899A89181619068CF18F819885C7
:1038D000A985BA850196A11DB11D8F839887A987F7
:1038E000BA878AA19BA1ACA1BDA10196A11DB11D62
:1038F0008AA39BA3ACA3BDA30E940E1C6D8F7E8FD9
:103900008F8F98A30BC00E940E1C0D8D1E8D2F8DC6
:1039100038A1601771078207930798F2DF91CF9162
:103920001F910F91FF90EF90DF90CF90089510E0DE
:1039300000E0F12CE12C8BE9C82E8FE0D82E89898C
:103940009A89E816F906CCF48A810E94AB092C8189
:103950003D812130310529F4019741F40F5F1F4F5C
:1039600005C02230310511F4892BC1F3C60101973E
:10397000F1F78FEFE81AF80AE2CFB701FF0C880BD6
:10398000990B0E94856520E030E040E45FE30E94EF
:10399000E4656B017C01B801110F880B990B0E9443
:1039A00085659B01AC01C701B6010E947E6587FF5A
:1039B000B5CF8CCF8091E6099091E709009711F07F
:1039C0000C94451C08958091E8099091E9090097AD
:1039D00011F00C94451C08958091EA099091EB092F
:1039E000009711F00C94451C08958091EC0990917A
:1039F000ED09009711F00C94451C08958091EE0993
:103A00009091EF09009711F00C94451C08956F9266
:103A10007F928F929F92AF92BF92CF92DF92EF925E
:103A2000FF920F931F93CF93DF93EC013B014A0169
:103A3000590147E050E070E060E00E94E1192AE09F
:103A400030E0C601B9010E942F686295607F860F41
:103A50008883C701B9010E942F686295607F860F35
:103A60008983C801B9010E942F686295607F860F23
:103A70008A83C501B9010E942F686295607F860F15
:103A80008C83C401B9010E942F686295607F860F04
:103A90008D83C301B9010E942F686295607F860FF4
:103AA0008E8347E050E070E060E0CE01DF91CF917F
:103AB0001F910F91FF90EF90DF90CF90BF90AF904C
:103AC0009F908F907F906F900C94E315875B9F4F32
:103AD0000C946D6909960C946D6943960C946D690C
:103AE00007960C946D690B960C946D698C519E4FE2
:103AF0000C946D69CF92DF92EF92FF920F931F9318
:103B0000CF93DF93CDB7DEB760970FB6F894DEBFE3
:103B10000FBECDBF8C01FB016A0185811F928F937F
:103B200084811F928F9383811F928F9382811F9232
:103B30008F9386EB93E09F938F939E012F5F3F4F70
:103B400079013F932F930E94B669D801ED91FC91C2
:103B50000088F189E02DA601B701C80119950FB6BB
:103B6000F894DEBF0FBECDBF60960FB6F894DEBFEF
:103B70000FBECDBFDF91CF911F910F91FF90EF90BE
:103B8000DF90CF900895CF93DF93EC0182E190E036
:103B90000E94AD62DC018E819F814C815D812A8112
:103BA0003B813327F901EE5AF74FE4911496EC93D9
:103BB00014975527FA01EE5AF74FE4911596EC93B6
:103BC00015972856374FF9016491E62FF0E0EE0F74
:103BD000FF1FED57F84F6591749117967C936E9384
:103BE0001697FA01E856F74FE491F0E0EE0FFF1F49
:103BF000E356F84F4591549119965C934E9318975C
:103C0000F9012491E22FF0E0EE0FFF1FE85CF74F7F
:103C1000259134911B963C932E931A97019649E374
:103C2000489F9001499F300D11242E38FFE63F0731
:103C300010F02DE83FE61D963C932E931C97BD8B0C
:103C4000AC8BDF91CF910895CF93DF93FC01DC0122
:103C500012969C01275F3F4FEB01A217B30771F447
:103C60009B01295F3F4F80E06217730751F0DB0132
:103C70009D91BD019F3FC1F381E0F6CF89918D9366
:103C8000ECCF811109C08FEF9FEF938382839583DF
:103C900084831782168210868085882329F0CF01BD
:103CA000DF91CF910C94C31DDF91CF910895CF92F6
:103CB000DF92EF92FF920F931F93CF93DF9300D089
:103CC00000D01F921F92CDB7DEB76C018EE090E05E
:103CD0000E94AD627C01D60112960D911C9160E0AC
:103CE000802F0E94120A1127F801EE5AF74FE49133
:103CF000D701EC93F801E856F74FE491F0E0EE0FAE
:103D0000FF1FE356F84F85919491F70192838183C9
:103D100013861586148684E190E00E94AD628C01C2
:103D2000DC011796FC92EE92169714961C9214974B
:103D300015961C9215971C9289E011968C931197F9
:103D400081E012968C93129713968C931397539647
:103D50001C921E925297F601138B028BD7011A9672
:103D60001C921A9719961C92199718961C921897DC
:103D700017961C92179716961C92169715961C92DA
:103D8000159714961C92149713961C92EE24E394A4
:103D9000BE016F5F7F4FF801868197810E9457189F
:103DA000882309F46CC067E0CE0101960E94EB0EF7
:103DB00098858913EDCFD8018C91811125C0169675
:103DC0008D919C910E949D0FBE016F5F7F4FF80106
:103DD000868197810E947E0F40E064EBD8011696A1
:103DE0008D919C910E944A0FF801868197810E94D3
:103DF000F70EF82ED80116968D919C910E949D0F7A
:103E0000F11002C0F801E082D8011196FC9089817E
:103E1000803109F448C0BE016F5F7F4FC8010E9426
:103E200046108F15D0F4F8018181D80111968C933A
:103E3000119714968C9114978F5F14968C938981A7
:103E4000883231F0B0F4803119F0823209F0A0CF1D
:103E5000F80185818F5F85839BCF8981803111F443
:103E60008CE0E3CFBE016F5F7F4FC8010E94461018
:103E7000DCCF8B3369F3823409F08ACFE9CFD601E6
:103E80005296ED91FC91128228960FB6F894DEBFFF
:103E90000FBECDBFDF91CF911F910F91FF90EF909B
:103EA000DF90CF900895BCE0BF1508F4BCCFD8CF09
:103EB000FC013296AC01495F5F4FDB01E417F50767
:103EC00071F4AB014B5F5F4F20E06417750751F051
:103ED000FB013191BF013F3FC1F321E0F6CF2D91AE
:103EE0002193ECCF211106C02FEF3FEFFC0133836C
:103EF00022831682FC01268121110C94571E0895FD
:103F0000FB0101900020E9F73197AF01461B570BE9
:103F1000DC01ED91FC910280F381E02D19946EEEAD
:103F200075E00C94801FCF93DF93BC018EE39CE07F
:103F30000E94BB07EC018EE39CE00E948F1F8C0F58
:103F40009D1FDF91CF9108950F931F93CF93DF9320
:103F5000EC010E946A078C01CE010E948F1F800F26
:103F6000911FDF91CF911F910F910895CF93DF9310
:103F7000FC01A481B581109721F480E0DF91CF91FD
:103F80000895EC01ED91FC9111970688F789E02DD9
:103F9000CD011995811124C0FE01E55BFE4F8081A2
:103FA0009181892B51F78DEF9FEF918380838C81D5
:103FB0009D81DC01ED91FC910680F781E02D199542
:103FC00061EA74E08EE39CE00E94A41F8C819D81D5
:103FD000DC01ED91FC910488F589E02D1995CDCF98
:103FE00081E0CCCFCF93DF93EC0180EE8E831F82F4
:103FF0008C819D81BE016A5F7F4FDC01ED91FC9158
:104000000280F381E02D42E050E01995FE01E55B6E
:10401000FE4F8FEF9FEF918380838C819D81DC0128
:10402000ED91FC910680F781E02D19956CE874E024
:104030008EE39CE00E94A41F8C819D81DC01ED91A8
:10404000FC910488F589E02D19950E94830BFE01EF
:10405000EC5CFE4F6083718382839383C85CDE4F88
:10406000688379838A839B83DF91CF9108952F9210
:104070003F924F925F926F927F928F929F92AF92F8
:10408000BF92CF92DF92EF92FF920F931F93CF9345
:10409000DF931F921F92CDB7DEB78C014B016C01ED
:1040A00026E0C20ED11CB6010E949D17811118C0D6
:1040B000F12CE12CC7010F900F90DF91CF911F9150
:1040C0000F91FF90EF90DF90CF90BF90AF909F90B7
:1040D0008F907F906F905F904F903F902F900895BA
:1040E000D8011696BC91BA8319821801E7E02E0E0A
:1040F000311CEE24E394F12CB12CA12C412C512C39
:1041000032014394BE016F5F7F4FC8010E949D172B
:10411000882371F2B7016F5F7F4F8981F10181932D
:104120001F01282F2F7730E0249DA001259D500DE1
:10413000349D500D1124A40EB51E27E0440C551CCF
:10414000661C771C2A95D1F787FD35C0FA81F07F70
:10415000FA838FEF860FD4018C93F03309F049C0B6
:104160006C0D7D1DC8010E949D17882309F4A0CF06
:10417000B7016E5F7F4F6C0D7D1DC8010E949D17BA
:10418000882309F495CFB7016D5F7F4FD401EC917F
:10419000E00FF12FF11DC780D12CDC2CCC248085C1
:1041A000C80ED11CF801868181FF03C0F2E0CF0E5A
:1041B000D11C82E021C07B016530710509F0A2CFDE
:1041C000F801E55BFE4F8FEF9FEF9183808367E7F8
:1041D00074E08EE39CE00E94A41FD80114968D9198
:1041E0009C91DC01ED91FC910488F589E02D1995F5
:1041F0005FCF80E0D12CC12C482E512C7B01461A78
:10420000570A180127EB221A2EEF320A8EEF682E7A
:1042100077247A94C2018E0D9F1D8A159B0590F517
:10422000BE016F5F7F4FC8010E949D17882309F46C
:104230003FCFD1018D919C910097B1F0BA81B033FD
:1042400099F4F4012081A301421B51099A012E0D1A
:104250003F1DC216D30640F4DC01ED91FC910190A4
:10426000F081E02D69811995BCE2EB16B1E0FB0607
:1042700028F48981F801EE0DFF1D8683EFEFEE1A19
:10428000FE0AC8CFF801E75BFE4F80819181892B40
:1042900009F010CFFDE2EF16F1E0FF0608F008CFBD
:1042A00009CF1F93CF93DF93EC01162F8E859F8547
:1042B000029744F48C859D850E948F1F82E090E0D8
:1042C0009F878E878C859D85DC01ED91FC91019007
:1042D000F081E02D612FDF91CF911F911994EF9222
:1042E000FF920F931F93CF93DF93EC018B017A0121
:1042F0008E859F85029744F48C859D850E948F1F33
:1043000082E090E09F878E878C859D85DC01ED9112
:10431000FC910280F381E02DA701B801DF91CF91DC
:104320001F910F91FF90EF9019948F929F92AF92EF
:10433000BF92EF92FF920F931F93CF93DF93CDB76E
:10434000DEB7A1970FB6F894DEBF0FBECDBF7C01DC
:10435000FA01CB0119A2223008F42AE08E010F5D88
:104360001F4F822E912CB12CA12CBF01A5019401CD
:104370000E94B866F901CA016A300CF5605DD80187
:104380006E938D01232B242B252B79F790E080E071
:10439000109721F0BD01C7010E94801FA1960FB6A2
:1043A000F894DEBF0FBECDBFDF91CF911F910F916B
:1043B000FF90EF90BF90AF909F908F900895695CB1
:1043C000DECF0F931F93CF93DF93EC01AB0170E02F
:1043D00060E02AE00E9495218C01CE010E948F1F8F
:1043E000800F911FDF91CF911F910F910895CF9270
:1043F000DF92EF92FF920F931F93CF93DF938C0185
:104400006B01770FEE08FF08F7FE1FC06DE20E94F8
:104410006307EC0144275527BA014C195D096E0961
:104420007F092AE0C8010E949521C80FD91FC80141
:104430000E948F1F8C0F9D1FDF91CF911F910F91B5
:10444000FF90EF90DF90CF9008952AE0B701A6018A
:104450000E949521EC01EBCF8F929F92AF92BF9279
:10446000CF92DF92EF92FF920F931F93CF93DF9340
:104470007C018B016C0182E0C80ED11C4701E5E094
:104480008E0E911CD0E0C0E0F60141916F0150E02A
:1044900070E060E02AE0C8010E9495215C016EE2B4
:1044A000C8010E9463078A0D9B1DC80FD91FC8143D
:1044B000D90451F7F701458150E070E060E02AE04F
:1044C000C8010E9495218C0F9D1FDF91CF911F91F4
:1044D0000F91FF90EF90DF90CF90BF90AF909F90A3
:1044E0008F9008952F923F924F925F926F927F929A
:1044F0008F929F92AF92BF92CF92DF92EF92FF92F4
:104500001F93CF93DF93EC016A017B01722EAB0105
:104510009601CB01B6010E94166862EC73E081112E
:1045200026C046015701E894B7F82FEF3FEF4FE759
:104530005FE7C501B4010E94166881110CC02FEF1E
:104540003FEF4FE75FE7C501B4010E947E6566EC6F
:1045500073E0181664F02FEF3FEF4FE75FE4C701F9
:10456000B6010E9411681816B4F46AEC73E0CE012B
:10457000DF91CF911F91FF90EF90DF90CF90BF9090
:10458000AF909F908F907F906F905F904F903F90F3
:104590002F900C94801F2FEF3FEF4FE75FECC70188
:1045A000B6010E947E6587FDE0CF20E030E0A901E2
:1045B000C701B6010E947E65312C212C87FF09C0FE
:1045C0006DE2CE010E9463071C01F7FAF094F7F840
:1045D000F09410E060E070E080E09FE3711641F03D
:1045E00020E030E040E251E40E9469671F5FF6CFAF
:1045F000A70196010E94FD662B013C010E94E26723
:104600004B015C012AE0BC01A401CE010E9495216E
:104610007C01E20CF31C1123C1F1C501B4010E941D
:1046200083659B01AC01C301B2010E94FC664B0192
:104630005C016EE2CE010E946307E80EF91E115084
:1046400020F120E030E040E251E4C501B4010E94D5
:10465000E4652B013C010E94E2674B01B12CA12CC7
:104660002AE0B501A401CE010E949521E80EF91EB1
:10467000C501B4010E9483659B01AC01C301B20175
:104680000E94FC664B015C01DACFC701DF91CF913C
:104690001F91FF90EF90DF90CF90BF90AF909F90D1
:1046A0008F907F906F905F904F903F902F900895E4
:1046B0000F931F93CF93DF938C01D0E0C0E061157F
:1046C000710519F00E94801FEC01C8010E948F1F24
:1046D0008C0F9D1FDF91CF911F910F91089561E085
:1046E00086E30E94120A60E086E30E94D40961E03A
:1046F00087E30E94120A60E087E30E94D40961E028
:1047000088E30E94120A60E088E30E94D40961E015
:1047100089E30E94120A60E089E30E94D40961E003
:104720008AE30E94120A60E08AE30E94D40961E0F1
:104730008BE30E94120A60E08BE30E94D40961E0DF
:104740008CE30E94120A60E08CE30E94D40961E0CD
:104750008DE30E94120A60E08DE30E94D40961E0BB
:1047600083E40E94120A60E083E40E94D40961E0BD
:1047700084E40E94120A60E084E40E94D40984E088
:104780009BE00E94010987E69AE00E94010961E02E
:1047900080E20E94120A60E080E20E94D40961E097
:1047A00081E20E94120A61E081E20E94D40960E085
:1047B00087E20E94120A62E081E40E94120A61E02C
:1047C00087E00E94120A60E087E00E94D40960E05E
:1047D00086E00E94120A61E08FE20E94120A60E005
:1047E0008FE20E94D40960E08EE20E94120A61E02A
:1047F0008DE20E94120A60E08DE20E94D40960E01E
:104800008CE20E94120A61E088E00E94120A60E0D5
:1048100088E00E94D40960E088E00E94120A61E00A
:104820008EE10E94120A61E08EE10E94D40961E0EB
:1048300088E20E94120A60E088E20E94D40961E0E6
:1048400085E20E94120A60E085E20E94D40961E0DC
:104850008AE20E94120A60E08AE20E94D40961E0C2
:1048600081E30E94120A60E081E30E94D4096EECA9
:1048700073E08EE39CE00C9458236115710511F0F0
:104880000C94801F90E080E00895AF92BF92CF9289
:10489000DF92EF92FF920F931F93CF93DF93EC0180
:1048A0006B017A01590161EE73E08EE39CE00E9496
:1048B0005823B8018C859D850E943D2467EE78E0E1
:1048C0008C859D850E943D24B5018C859D850E9427
:1048D0003D246BEE73E08C859D850E945823C114A6
:1048E000D10409F165EF73E08C859D850E943D241C
:1048F000B6018C859D850E943D2480E5E816F10473
:1049000071F068E478E08C859D850E943D24A701C4
:1049100070E060E02AE08C859D850E9495218C8561
:104920009D850E948F1F6CEF73E08C859D850E9492
:104930003D2463EB73E08C859D850E943D2467E0F8
:1049400074E08C859D850E94582362E174E08C851B
:104950009D850E943D2463EB73E08C859D850E94BC
:104960003D246DE174E08C859D850E94582381E093
:1049700090E09F878E8790E080E0DF91CF911F913C
:104980000F91FF90EF90DF90CF90BF90AF90089580
:104990006F927F928F929F92AF92BF92CF92DF924F
:1049A000EF92FF920F931F93CF93DF9300D000D02D
:1049B000CDB7DEB7FC0186849784F2E08F169104B0
:1049C00008F058C059016A01DB017C01FC018485B3
:1049D0009585FC0120813181F9016684778423EA81
:1049E00033E03A83298312964D915D916D917C91CC
:1049F00015974B835C836D837E83A601BE016F5F39
:104A00007F4FF3011995892BF1F463E274E08EE393
:104A10009CE00E9458230FEF1FEFC80126960FB6A7
:104A2000F894DEBF0FBECDBFDF91CF911F910F91E4
:104A3000FF90EF90DF90CF90BF90AF909F908F90BE
:104A40007F906F9008959501A60170E060E0C70126
:104A50000E9445248C01892801F7892BF1F6F70182
:104A6000848595850E948F1F82E090E0F7019787EB
:104A70008687D3CF0EEF1FEFD0CF8F929F92AF924A
:104A8000BF92CF92DF92EF92FF920F931F93CF933B
:104A9000DF93DC011E96AD90BC90B2E0AB16B10482
:104AA000C8F549016A017B01EC018C859D85DC011B
:104AB000ED91FC910088F189E02D1995892BB1F4D5
:104AC00063E274E08EE39CE00E9458230FEF1FEF37
:104AD000C801DF91CF911F910F91FF90EF90DF9070
:104AE000CF90BF90AF909F908F9008959401A601B2
:104AF000B701CE010E9445248C01AB2849F7892BD0
:104B000039F78C859D850E948F1F82E090E09F87FA
:104B10008E87DECF0EEF1FEFDBCF0F931F93CF9368
:104B2000DF93EC014396FC0101900020E9F7CF01EF
:104B300002970E94D66383309105D1F1FCF4813055
:104B4000910541F1029769F18C819D818230910537
:104B5000E9F18330910509F458C0019751F460E000
:104B60008A810E94120A8A8143E050E0883008F46A
:104B700041C0DF91CF911F910F910895843091052D
:104B8000F1F0059709F7D093EF09C093EE090EEF06
:104B90001CE1DACFD093E709C093E6090AED1CE1E6
:104BA000D3CFD093E909C093E80903EE1CE1CCCF41
:104BB000D093EB09C093EA090CEE1CE1C5CFD0936A
:104BC000ED09C093EC0905EF1CE1BECF62E08A81DC
:104BD0000E94120A2A813B812230310591F0233054
:104BE000310589F0C9014297049718F687E1821BC5
:104BF00042E050E0B801DF91CF911F910F910C94EA
:104C0000A00D80E0F5CF81E0F3CF60E08A810E94C3
:104C1000120A2A813B812230310569F023303105A7
:104C200061F0C9014297049708F0A3CF87E1821B86
:104C300041E050E0DFCF80E0FBCF81E0F9CFCF93C0
:104C4000DF93FC01DC0112969C012D5E3F4FEB01CE
:104C5000A217B30771F49B012F5E3F4F80E06217EC
:104C6000730751F0DB019D91BD019F3FC1F381E0CE
:104C7000F6CF89918D93ECCF81111AC013821282E5
:104C8000158214821682178210861186128684EF8E
:104C900091E0A0E0B0E083879487A587B68781E0A4
:104CA00090E0908B8787128A118ADF91CF910895C7
:104CB000CF01DF91CF910C948D25EF92FF920F934E
:104CC0001F93CF93DF93FB0101900020E9F79F0131
:104CD000261B370B285F3F4F2D32314090F58B015B
:104CE000EC010E94B61F882361F1FE01EE5CFE4FCD
:104CF00080819181019611F19183808380819181DE
:104D00009B878C877E0146E0E40EF11C47E050E073
:104D1000B701C8010E948206FE01E80FF91F168242
:104D20009C0124503109A70162E8CE01DF91CF91A7
:104D30001F910F91FF90EF900C94F71681E090E097
:104D4000DBCF80E0DF91CF911F910F91FF90EF902B
:104D500008959F92AF92BF92CF92DF92EF92FF920F
:104D60000F931F93CF93DF937C016B01942E152F2C
:104D7000E9010E94B61F8823F1F1F601019000209D
:104D8000E9F73197EC19FD09CE010796E80FF91FF5
:104D9000ED32F14080F5570186E0A80EB11C45E0E8
:104DA00050E0B501C6010E948206E92DF12FDC0119
:104DB0001696AE0DBF1DAF014C0F5D1FE417F50732
:104DC00019F021912D93FACF259761E3011101C0CC
:104DD00060E39C012C0F3D1FA501C701DF91CF911E
:104DE0001F910F91FF90EF90DF90CF90BF90AF9009
:104DF0009F900C94F71680E0DF91CF911F910F9157
:104E0000FF90EF90DF90CF90BF90AF909F9008956C
:104E10000F93FA0101900020E9F73197E41BF50B9D
:104E2000022F9F010E94A9260F9108955F926F9211
:104E30007F928F929F92AF92BF92CF92DF92EF922A
:104E4000FF920F931F93CF93DF9300D000D01F9258
:104E50001F92CDB7DEB78C015B016A0179014C016D
:104E60002BEB821A2EEF920AD4016D917C918EE386
:104E70009CE00E9458233801B9EB6B1ABEEF7B0A05
:104E8000F301608171818EE39CE00E94E121C80101
:104E90000E94B61F582E811193C0D4016D917C9150
:104EA000F80184819581DC01ED91FC91D3014D9154
:104EB0005C916115710509F443C00088F189E02D0A
:104EC0001995F8018130910509F028C1EE5CFE4F7B
:104ED0009183808365E374E08EE39CE00E94582315
:104EE00087E0EEE2F2E0DE01119601900D928A95E4
:104EF000E1F7FE013196D8011B96C8014296219137
:104F00002D938A179B07D9F782E0C114D10429F0A9
:104F100082E8E114F10409F082ECF801828B138A33
:104F20008EE1848BD5010D900020E9F7CD018A191F
:104F30009B0940968D329140D8F08481958139C08B
:104F40000684F785E02D23EA33E03A832983D801EC
:104F5000A15CBE4F12966D907D908D909C901597A0
:104F60006B827C828D829E82BE016F5F7F4FA8CF55
:104F70004801B6E08B0E911C4FE050E0B401C50132
:104F80000E948206C114D10409F44FC0F6010190B9
:104F90000020E9F73197EC19FD099C012E5F3F4F86
:104FA000E20FF31FED32F14010F1D80114968D910C
:104FB0009C91DC01ED91FC910488F589E02D199517
:104FC000852D28960FB6F894DEBF0FBECDBFDF91BA
:104FD000CF911F910F91FF90EF90DF90CF90BF90F6
:104FE000AF909F908F907F906F905F900895AC01ED
:104FF000B401C6010E948206E114F104B1F0F70188
:1050000001900020E9F73197EE19FF099C012E5F0E
:105010003F4FE20FF31FED32F14010F0F8018DCF5A
:10502000AC01B401C7010E9482069C0125503109E0
:10503000A40160E1C8010E94F7160E94830BF801E9
:10504000EC5CFE4F60837183828393835801B8ECDC
:10505000AB1ABEEFBB0AF501608371838283938331
:10506000D80114968D919C91DC01ED91FC91008406
:10507000F185E02D1995892BF1F40E94830BF50140
:10508000C080D180E280F3806C197D098E099F0970
:1050900068397A438105910518F3F801E55BFE4F05
:1050A0008CEF9FEF918380836CE574E08EE39CE04E
:1050B0000E94A41F7ACFBE01685F7F4FC8010E9483
:1050C00037207C010497F1F4F80181859801255B74
:1050D0003E4F6901811112C00E94830BD5016D936F
:1050E0007D938D939C931397F801E45CFE4F10829F
:1050F000F601118210825524539462CF90E0D901B9
:105100008D939C9365E474E08EE39CE00E946A07B3
:10511000B7018EE39CE00E94E12180CFE55BFE4F6A
:105120008EEF9FEF918380834BCFCF92DF92EF92F0
:10513000FF920F931F93CF93DF93CDB7DEB76297A4
:105140000FB6F894DEBF0FBECDBFE0915E0EF091BA
:105150005F0EEA51FF4FE080F18022E0E216F10499
:1051600009F07AC08091600E9091610E892B09F050
:1051700073C068E07CE08EE39CE00E94A41F88E698
:1051800090E00E94AD628C0188E6D8011D928A955C
:10519000E9F7F8011382128288EE93E0A0E0B0E014
:1051A00084839583A683B78385E493E0918380838A
:1051B0008FEF9FEF91AF80AF83EA93E093AF82AF21
:1051C000D80114AE15AE16AE17AEA35BBF4F80E18B
:1051D000E5E3F2E001900D928A95E1F78EE39CE021
:1051E000F80197A786A7F6AAE5AA60915E0E7091CE
:1051F0005F0E68517F4FC8010C960E946D6984E074
:105200009BE0D8019D969C938E939C97F801E05C5F
:10521000FF4F81E390E09183808380E091E00E94E2
:10522000AD62F801EE5BFF4F9183808380E091E0F7
:105230000E94AD62F801E65BFF4F9183808380E0BE
:1052400091E00E94AD62F801E35AFF4F91838083A1
:105250001093610E0093600E8091600E9091610E2C
:10526000009709F44DC0DC01ED91FC9102A0F3A17F
:10527000E02D199581111AC06AEF7BE08EE39CE066
:105280000E94A41F8091600E9091610EDC01ED914F
:10529000FC91028CF38DE02D48E750E060E070E077
:1052A00019956BEE7BE0882309F4E0C182E69EE06D
:1052B0000E94701B6115734E8C429E4508F497C086
:1052C00082E69EE00E94701B613076478A479649CD
:1052D00008F08DC00E94830B00914D1210914E1268
:1052E00020914F1230915012601B710B820B930B67
:1052F00061307C458642954008F079C00E94830B5E
:105300008091600E9091610E892B09F461C08091AB
:105310005E0E90915F0EFC01EA5BFE4F20813181B1
:105320002430310509F0B3C0BA972081222309F453
:105330004FC0825A9E4FFC018081882309F448C0E7
:105340008091FA109091FB10892B09F041C06BED10
:105350007BE08EE39CE00E94A41F84E290E00E9428
:10536000AD62FC018091600E9091610E13821282F9
:1053700048EE53E060E070E04483558366837783B2
:105380002FE133E0318320839587848783EA93E09C
:10539000918F808F128E138E148E158E178E168E0F
:1053A00017861686118A108A138A128A158A148A19
:1053B00085EA93E0978B868B80E395E7A0E0B0E0E9
:1053C00080A391A3A2A3B3A3F093FB10E093FA10E0
:1053D00062960FB6F894DEBF0FBECDBFDF91CF91BE
:1053E0001F910F91FF90EF90DF90CF9008958091E3
:1053F000600E9091610EE0915E0EF0915F0EE052B2
:10540000FE4F2081318142815381DC01ED91FC917D
:1054100004A0F5A1E02DBE016F5F7F4F1995882391
:1054200009F46ECF6B857C85603DB7E07B0784F225
:10543000605D77407C876B878EE39CE00E94F7215C
:1054400069857A858EE39CE00E94F7216F817885DB
:105450008EE39CE00E94F721C980DA80EB80FC801B
:105460000D811E812F81388549855A856B857C8504
:1054700082E69EE00E94071D0E94830B60934D12FE
:1054800070934E1280934F129093501239CF233065
:10549000310509F0F0C0845E9E4FDC018C918823B9
:1054A00009F496CF8091F8109091F910009709F0C7
:1054B0008DC06BEC7BE08EE39CE00E94A41F83EA2E
:1054C00093E09E878D871F86188A198A1A8A009111
:1054D0005E0E10915F0E045E1E4F6AE370E0C8011D
:1054E0000E9459697C018091921190919311E1146D
:1054F000F10409F04EC0B8010E946D690BE517E098
:1055000060EB7BE08EE39CE00E946A076091921161
:10551000709193118EE39CE00E94582368EE73E033
:1055200080E090E00E94500B609192117091931175
:10553000CE010D960E94C2078F8581110AC088890D
:10554000811107C08989811104C08A89882309F4DF
:1055500076C183EA93E09A8389838F859889A989A4
:10556000BA898B839C83AD83BE838DE491E00E94D6
:10557000AD627C012091600E3091610EA801BE01E8
:105580006F5F7F4F0E94E706F092F910E092F810EB
:105590001FCFA701401B510BB8010E948269809167
:1055A0005E0E90915F0E845E9E4FF701E81BF90B33
:1055B000CF01E0919211F0919311E80FF91F108241
:1055C000C70101960E94D6638C019ACF0E94B61F34
:1055D00081114AC06AE97BE08EE39CE00E94A41F2F
:1055E00040915E0E50915F0E9A012E5B3F4F4E5FD1
:1055F0005F4F67E474E08091F8109091F9100E9479
:105600001627682F70E08EE39CE00E94F721E0915E
:105610005E0EF0915F0EE256FE4F8081882309F402
:10562000D7CE66E87BE08EE39CE00E946A0760913B
:105630005E0E70915F0E62567E4F8EE39CE00E947C
:10564000582360915E0E70915F0E62567E4F80917E
:10565000F8109091F9100E945D26682F70E08EE39B
:105660009CE00E94F721B4CE6EE67BE08EE39CE0E6
:105670000E94A41FADCE2230310509F081C0845EA6
:105680009E4FDC018C91882309F4A2CE8091F81002
:105690009091F910009709F046C06EE57BE08EE32B
:1056A0009CE00E94A41F83EA93E09E878D871F865B
:1056B000188A198A1A8A00915E0E10915F0E045E94
:1056C0001E4F6AE370E0C8010E9459697C01809115
:1056D000921190919311E114F10441F4B8010E94E8
:1056E0006D690BE517E065E47BE00CCFA701401B7B
:1056F000510BB8010E94826980915E0E90915F0EFD
:10570000845E9E4FF701E81BF90BCF01E0919211E7
:10571000F0919311E80FF91F1082C70101960E94C2
:10572000D6638C01E0CF0E94B61F811126C06FE2C4
:105730007BE08EE39CE00E94A41F40915E0E50919E
:105740005F0E9A012E5B3F4F4E5F5F4F67E474E040
:105750008091F8109091F9100E941627682F70E040
:105760008EE39CE00E94F7216DE17BE08EE39CE0FC
:105770000E946A0763E574E06ACF67E07BE076CF5A
:105780002530310509F024CEFC01E45EFE4F208176
:10579000222309F41DCE825A9E4FDC018C9188236E
:1057A00009F416CE8091F8109091F910009709F045
:1057B00085C064EF7AE08EE39CE00E94A41F83EA38
:1057C00093E09E878D871F86188A198A1A8A00910E
:1057D0005E0E10915F0E045E1E4F6AE370E0C8011A
:1057E0000E9459697C018091921190919311E1146A
:1057F000F10441F4B8010E946D690BE517E06BED0F
:105800007AE080CEA701401B510BB8010E9482694B
:1058100080915E0E90915F0E845E9E4FF701E81BB3
:10582000F90BCF01E0919211F0919311E80FF91F5C
:105830001082C70101960E94D6638C01E0CFE090F0
:10584000600EF090610E8DE491E00E94AD62FC016B
:1058500080919211909193111382128223E733E089
:1058600031832083DF01A15CBE4F23EA33E0119630
:105870003C932E9312961D921D921D921C92159789
:105880001C962FEF3FEF11963C932E93169711968F
:105890009C938E93129611961C930E931A978EE0FA
:1058A00091E411969C938E93F582E4821C961D924E
:1058B0001C92F093F910E093F8108ACD0E94B61F65
:1058C0006DE97AE08111D2CE65EC7AE08EE39CE05E
:1058D0000E94A41F60915E0E70915F0E625A7E4F0F
:1058E0002FE634E04FEF54E08091F8109091F910DA
:1058F0000E941627682F70E08EE39CE00E94F7213B
:1059000063EB7AE08EE39CE00E946A0780915E0E72
:1059100090915F0E825A9E4F9F938F9387E395E0FD
:105920009F938F93809193118F93809192118F9376
:105930000E94B66960919211709193118091F81054
:105940009091F9100E945D26682F70E08EE39CE034
:105950000E94F7210F900F900F900F900F900F90D3
:1059600037CDFC013296AC014C515E4FDB01E417A0
:10597000F50771F4AB014E515E4F20E064177507D7
:1059800051F0DB013D91BD013F3FC1F321E0F6CF76
:105990002D912193ECCF21112CC0FC011282EE5BE2
:1059A000FF4F1082EC55FF4F118210823296108209
:1059B000B0961082FC9611821082B89728E2DF011F
:1059C0001D922A95E9F7E05CFF4F11821082329612
:1059D00020E4DF01322F1D923A95E9F7E05CFF4F9A
:1059E000DF011D922A95E9F782529E4FFC01118238
:1059F00010820895FC0180819181009711F00C9430
:105A000049630895EF92FF920F931F93CF93DF9313
:105A1000EC017B01FB0101900020E9F731978F0138
:105A2000061B170B88819981009729F02A813B81F9
:105A30002017310788F4B8016F5F7F4F0E945268CA
:105A40000097B9F0998388831B830A832C813D8159
:105A5000232B11F4FC0110821D830C83B701888174
:105A60009981DF91CF911F910F91FF90EF900C944E
:105A70006D6988819981009711F00E9449631982AC
:105A800018821D821C821B821A82DF91CF911F9186
:105A90000F91FF90EF900895EF92FF920F931F9355
:105AA000CF93DF9300D000D000D0CDB7DEB78C010C
:105AB00089E0E9E5F5E0DE01119601900D928A9505
:105AC000E1F7FB01868197812AE030E0B9010E946D
:105AD0002F68605D6F83805D888780859185B901BF
